{
  "_format": "hh-sol-artifact-1",
  "contractName": "CampaignFactory",
  "sourceName": "contracts/Campaign.sol",
  "abi": [
    {
      "inputs": [
        {
          "internalType": "uint256",
          "name": "_minimum",
          "type": "uint256"
        }
      ],
      "name": "createCampaign",
      "outputs": [],
      "stateMutability": "nonpayable",
      "type": "function"
    },
    {
      "inputs": [
        {
          "internalType": "uint256",
          "name": "",
          "type": "uint256"
        }
      ],
      "name": "deployedCampaigns",
      "outputs": [
        {
          "internalType": "contract Campaign",
          "name": "",
          "type": "address"
        }
      ],
      "stateMutability": "view",
      "type": "function"
    },
    {
      "inputs": [],
      "name": "getDeployedContracts",
      "outputs": [
        {
          "internalType": "contract Campaign[]",
          "name": "",
          "type": "address[]"
        }
      ],
      "stateMutability": "view",
      "type": "function"
    }
  ],
  "bytecode": "0x608060405234801561001057600080fd5b50611919806100206000396000f3fe608060405234801561001057600080fd5b50600436106100415760003560e01c8063339d50a514610046578063a3303a7514610076578063aa9a068f14610092575b600080fd5b610060600480360381019061005b9190610240565b6100b0565b60405161006d919061033d565b60405180910390f35b610090600480360381019061008b9190610240565b6100ef565b005b61009a610190565b6040516100a7919061031b565b60405180910390f35b600081815481106100c057600080fd5b906000526020600020016000915054906101000a900473ffffffffffffffffffffffffffffffffffffffff1681565b600081336040516100ff9061021e565b61010a929190610358565b604051809103906000f080158015610126573d6000803e3d6000fd5b5090506000819080600181540180825580915050600190039060005260206000200160009091909190916101000a81548173ffffffffffffffffffffffffffffffffffffffff021916908373ffffffffffffffffffffffffffffffffffffffff1602179055505050565b6060600080548060200260200160405190810160405280929190818152602001828054801561021457602002820191906000526020600020905b8160009054906101000a900473ffffffffffffffffffffffffffffffffffffffff1673ffffffffffffffffffffffffffffffffffffffff16815260200190600101908083116101ca575b5050505050905090565b6114b28061043283390190565b60008135905061023a8161041a565b92915050565b60006020828403121561025257600080fd5b60006102608482850161022b565b91505092915050565b600061027583836102ee565b60208301905092915050565b61028a816103ba565b82525050565b600061029b82610391565b6102a581856103a9565b93506102b083610381565b8060005b838110156102e15781516102c88882610269565b97506102d38361039c565b9250506001810190506102b4565b5085935050505092915050565b6102f7816103f6565b82525050565b610306816103f6565b82525050565b610315816103ec565b82525050565b600060208201905081810360008301526103358184610290565b905092915050565b600060208201905061035260008301846102fd565b92915050565b600060408201905061036d600083018561030c565b61037a6020830184610281565b9392505050565b6000819050602082019050919050565b600081519050919050565b6000602082019050919050565b600082825260208201905092915050565b60006103c5826103cc565b9050919050565b600073ffffffffffffffffffffffffffffffffffffffff82169050919050565b6000819050919050565b600061040182610408565b9050919050565b6000610413826103cc565b9050919050565b610423816103ec565b811461042e57600080fd5b5056fe60806040523480156200001157600080fd5b50604051620014b2380380620014b28339818101604052810190620000379190620000b5565b80600360006101000a81548173ffffffffffffffffffffffffffffffffffffffff021916908373ffffffffffffffffffffffffffffffffffffffff16021790555081600481905550505062000168565b600081519050620000988162000134565b92915050565b600081519050620000af816200014e565b92915050565b60008060408385031215620000c957600080fd5b6000620000d9858286016200009e565b9250506020620000ec8582860162000087565b9150509250929050565b600062000103826200010a565b9050919050565b600073ffffffffffffffffffffffffffffffffffffffff82169050919050565b6000819050919050565b6200013f81620000f6565b81146200014b57600080fd5b50565b62000159816200012a565b81146200016557600080fd5b50565b61133a80620001786000396000f3fe6080604052600436106100c25760003560e01c8063a1b636911161007f578063d7d1bbdb11610059578063d7d1bbdb14610261578063e11523431461028a578063ec3313db146102a6578063fb6094c9146102d5576100c2565b8063a1b63691146101dd578063d3650fb81461021a578063d7bb99ba14610257576100c2565b8063481c6a75146100c75780635c0c5a87146100f257806369ad39761461011d57806381d12c581461014857806382fde093146101895780638a9cfd55146101b4575b600080fd5b3480156100d357600080fd5b506100dc610300565b6040516100e99190610d4b565b60405180910390f35b3480156100fe57600080fd5b50610107610326565b6040516101149190610e80565b60405180910390f35b34801561012957600080fd5b5061013261032c565b60405161013f9190610e80565b60405180910390f35b34801561015457600080fd5b5061016f600480360381019061016a9190610bea565b610336565b604051610180959493929190610d66565b60405180910390f35b34801561019557600080fd5b5061019e610421565b6040516101ab9190610e80565b60405180910390f35b3480156101c057600080fd5b506101db60048036038101906101d69190610b83565b610427565b005b3480156101e957600080fd5b5061020460048036038101906101ff9190610b5a565b61058d565b6040516102119190610e80565b60405180910390f35b34801561022657600080fd5b50610241600480360381019061023c9190610bea565b6105a5565b60405161024e9190610d4b565b60405180910390f35b61025f6105e4565b005b34801561026d57600080fd5b5061028860048036038101906102839190610bea565b6106ea565b005b6102a4600480360381019061029f9190610bea565b61088b565b005b3480156102b257600080fd5b506102bb6109d9565b6040516102cc959493929190610e9b565b60405180910390f35b3480156102e157600080fd5b506102ea610a1f565b6040516102f79190610e80565b60405180910390f35b600360009054906101000a900473ffffffffffffffffffffffffffffffffffffffff1681565b60025481565b6000600254905090565b60016020528060005260406000206000915090508060000180546103599061101b565b80601f01602080910402602001604051908101604052809291908181526020018280546103859061101b565b80156103d25780601f106103a7576101008083540402835291602001916103d2565b820191906000526020600020905b8154815290600101906020018083116103b557829003601f168201915b5050505050908060010154908060020160009054906101000a900473ffffffffffffffffffffffffffffffffffffffff16908060020160149054906101000a900460ff16908060030154905085565b60075481565b600360009054906101000a900473ffffffffffffffffffffffffffffffffffffffff1673ffffffffffffffffffffffffffffffffffffffff163373ffffffffffffffffffffffffffffffffffffffff16146104b7576040517f08c379a00000000000000000000000000000000000000000000000000000000081526004016104ae90610e40565b60405180910390fd5b6000600160008060008154809291906104cf9061107e565b9190505581526020019081526020016000209050838160000190805190602001906104fb929190610a25565b50828160010181905550818160020160006101000a81548173ffffffffffffffffffffffffffffffffffffffff021916908373ffffffffffffffffffffffffffffffffffffffff16021790555060008160020160146101000a81548160ff02191690831515021790555060008160030181905550600260008154809291906105829061107e565b919050555050505050565b60066020528060005260406000206000915090505481565b600581815481106105b557600080fd5b906000526020600020016000915054906101000a900473ffffffffffffffffffffffffffffffffffffffff1681565b600454341015610629576040517f08c379a000000000000000000000000000000000000000000000000000000000815260040161062090610e20565b60405180910390fd5b34600660003373ffffffffffffffffffffffffffffffffffffffff1673ffffffffffffffffffffffffffffffffffffffff168152602001908152602001600020819055506005339080600181540180825580915050600190039060005260206000200160009091909190916101000a81548173ffffffffffffffffffffffffffffffffffffffff021916908373ffffffffffffffffffffffffffffffffffffffff160217905550600760008154809291906106e39061107e565b9190505550565b60006001600083815260200190815260200160002090506000600660003373ffffffffffffffffffffffffffffffffffffffff1673ffffffffffffffffffffffffffffffffffffffff168152602001908152602001600020541415610784576040517f08c379a000000000000000000000000000000000000000000000000000000000815260040161077b90610e60565b60405180910390fd5b8060040160003373ffffffffffffffffffffffffffffffffffffffff1673ffffffffffffffffffffffffffffffffffffffff16815260200190815260200160002060009054906101000a900460ff1615610813576040517f08c379a000000000000000000000000000000000000000000000000000000000815260040161080a90610dc0565b60405180910390fd5b60018160040160003373ffffffffffffffffffffffffffffffffffffffff1673ffffffffffffffffffffffffffffffffffffffff16815260200190815260200160002060006101000a81548160ff0219169083151502179055508060030160008154809291906108829061107e565b91905055505050565b60006001600083815260200190815260200160002090508060020160149054906101000a900460ff16156108f4576040517f08c379a00000000000000000000000000000000000000000000000000000000081526004016108eb90610e00565b60405180910390fd5b60026007546109039190610f60565b81600301541015610949576040517f08c379a000000000000000000000000000000000000000000000000000000000815260040161094090610de0565b60405180910390fd5b60018160020160146101000a81548160ff0219169083151502179055508060020160009054906101000a900473ffffffffffffffffffffffffffffffffffffffff1673ffffffffffffffffffffffffffffffffffffffff166108fc82600101549081150290604051600060405180830381858888f193505050501580156109d4573d6000803e3d6000fd5b505050565b600080600080600060045447600254600754600360009054906101000a900473ffffffffffffffffffffffffffffffffffffffff16945094509450945094509091929394565b60045481565b828054610a319061101b565b90600052602060002090601f016020900481019282610a535760008555610a9a565b82601f10610a6c57805160ff1916838001178555610a9a565b82800160010185558215610a9a579182015b82811115610a99578251825591602001919060010190610a7e565b5b509050610aa79190610aab565b5090565b5b80821115610ac4576000816000905550600101610aac565b5090565b6000610adb610ad684610f13565b610eee565b905082815260208101848484011115610af357600080fd5b610afe848285610fd9565b509392505050565b600081359050610b15816112d6565b92915050565b600082601f830112610b2c57600080fd5b8135610b3c848260208601610ac8565b91505092915050565b600081359050610b54816112ed565b92915050565b600060208284031215610b6c57600080fd5b6000610b7a84828501610b06565b91505092915050565b600080600060608486031215610b9857600080fd5b600084013567ffffffffffffffff811115610bb257600080fd5b610bbe86828701610b1b565b9350506020610bcf86828701610b45565b9250506040610be086828701610b06565b9150509250925092565b600060208284031215610bfc57600080fd5b6000610c0a84828501610b45565b91505092915050565b610c1c81610f91565b82525050565b610c2b81610fa3565b82525050565b6000610c3c82610f44565b610c468185610f4f565b9350610c56818560208601610fe8565b610c5f81611183565b840191505092915050565b6000610c77601e83610f4f565b9150610c8282611194565b602082019050919050565b6000610c9a601c83610f4f565b9150610ca5826111bd565b602082019050919050565b6000610cbd602483610f4f565b9150610cc8826111e6565b604082019050919050565b6000610ce0601683610f4f565b9150610ceb82611235565b602082019050919050565b6000610d03601a83610f4f565b9150610d0e8261125e565b602082019050919050565b6000610d26602983610f4f565b9150610d3182611287565b604082019050919050565b610d4581610fcf565b82525050565b6000602082019050610d606000830184610c13565b92915050565b600060a0820190508181036000830152610d808188610c31565b9050610d8f6020830187610d3c565b610d9c6040830186610c13565b610da96060830185610c22565b610db66080830184610d3c565b9695505050505050565b60006020820190508181036000830152610dd981610c6a565b9050919050565b60006020820190508181036000830152610df981610c8d565b9050919050565b60006020820190508181036000830152610e1981610cb0565b9050919050565b60006020820190508181036000830152610e3981610cd3565b9050919050565b60006020820190508181036000830152610e5981610cf6565b9050919050565b60006020820190508181036000830152610e7981610d19565b9050919050565b6000602082019050610e956000830184610d3c565b92915050565b600060a082019050610eb06000830188610d3c565b610ebd6020830187610d3c565b610eca6040830186610d3c565b610ed76060830185610d3c565b610ee46080830184610c13565b9695505050505050565b6000610ef8610f09565b9050610f04828261104d565b919050565b6000604051905090565b600067ffffffffffffffff821115610f2e57610f2d611154565b5b610f3782611183565b9050602081019050919050565b600081519050919050565b600082825260208201905092915050565b6000610f6b82610fcf565b9150610f7683610fcf565b925082610f8657610f856110f6565b5b828204905092915050565b6000610f9c82610faf565b9050919050565b60008115159050919050565b600073ffffffffffffffffffffffffffffffffffffffff82169050919050565b6000819050919050565b82818337600083830152505050565b60005b83811015611006578082015181840152602081019050610feb565b83811115611015576000848401525b50505050565b6000600282049050600182168061103357607f821691505b6020821081141561104757611046611125565b5b50919050565b61105682611183565b810181811067ffffffffffffffff8211171561107557611074611154565b5b80604052505050565b600061108982610fcf565b91507fffffffffffffffffffffffffffffffffffffffffffffffffffffffffffffffff8214156110bc576110bb6110c7565b5b600182019050919050565b7f4e487b7100000000000000000000000000000000000000000000000000000000600052601160045260246000fd5b7f4e487b7100000000000000000000000000000000000000000000000000000000600052601260045260246000fd5b7f4e487b7100000000000000000000000000000000000000000000000000000000600052602260045260246000fd5b7f4e487b7100000000000000000000000000000000000000000000000000000000600052604160045260246000fd5b6000601f19601f8301169050919050565b7f766f74652068617320616c7265616479206265656e207265636f726465640000600082015250565b7f646f6e27742068617665206d696e696e756d20617070726f76616c7300000000600082015250565b7f746865207472616e73616374696f6e20697320616c726561647920636f6d706c60008201527f6574656400000000000000000000000000000000000000000000000000000000602082015250565b7f706c656173652073656e64206d696e20616d6f756e7400000000000000000000600082015250565b7f6f6e6c79206d616e6765722063616e2063616c6c207468697321000000000000600082015250565b7f796f752068617665206e6f7420636f6e747269627574656420746f207468697360008201527f2063616d706169676e0000000000000000000000000000000000000000000000602082015250565b6112df81610f91565b81146112ea57600080fd5b50565b6112f681610fcf565b811461130157600080fd5b5056fea264697066735822122055a8f71c239e2f6509aeed4de2d3cf66fe3fc09ec6916ca8a4205d792671330c64736f6c63430008040033a2646970667358221220a926ce133f78fa3d571eef5cd1e71ad4729fde94ea41309ff27a3f83254d790464736f6c63430008040033",
  "linkReferences": {},
  "deployedLinkReferences": {}
}